8=FIX.4.2|9=245|35=J|34=1|49=RAYMONDJAMES|52=20251222-20:47:34.502|56=RJSYNUAT|6=28.2|22=1|48=671768109|53=155|54=1|55=UNKNOWN|70=10068-20251222|71=0|75=20251111|73=1|11=ORDER-10068-20251222|78=3|79=GS|80=55|153=28.1|79=UBS|80=45|153=28.3|79=SSB|80=55|153=28.2|10=097|