8=FIX.4.2|9=237|35=J|34=1|49=CLIENT1|52=20251226-21:49:38.745|56=BROKER|6=0|22=1|48=775711104|53=0|54=2|55=ROL|70=10081-20251226|71=0|75=20251111|73=1|11=ORDER-10081-20251226|78=4|79=JPM|153=58.877|79=JPM|153=58.877|79=JPM|153=58.877|79=MSCO|153=58.877|10=068|