8=FIX.4.2|9=172|35=J|34=1|49=CLIENT1|52=20251222-19:48:00.829|56=BROKER|6=0|53=0|54=1|55=ANGH|70=10049-20251222|71=0|75=20251222|73=1|11=ORDER-10049-20251222|78=1|79=FMR|80=444|153=2.8032|10=248|8=FIX.4.2|9=173|35=J|34=2|49=CLIENT1|52=20251222-19:48:00.858|56=BROKER|6=0|53=0|54=5|55=AQMS|70=10050-20251222|71=0|75=20251222|73=1|11=ORDER-10050-20251222|78=1|79=FMR|80=9195|153=6.8123|10=069|8=FIX.4.2|9=174|35=J|34=3|49=CLIENT1|52=20251222-19:48:00.866|56=BROKER|6=0|53=0|54=5|55=DERM|70=10051-20251222|71=0|75=20251222|73=1|11=ORDER-10051-20251222|78=1|79=CLST|80=7488|153=9.0709|10=151|8=FIX.4.2|9=174|35=J|34=4|49=CLIENT1|52=20251222-19:48:00.884|56=BROKER|6=0|53=0|54=1|55=ELMD|70=10052-20251222|71=0|75=20251222|73=1|11=ORDER-10052-20251222|78=1|79=FMR|80=1370|153=24.9368|10=102|8=FIX.4.2|9=175|35=J|34=5|49=CLIENT1|52=20251222-19:48:00.895|56=BROKER|6=0|53=0|54=5|55=FBRX|70=10053-20251222|71=0|75=20251222|73=1|11=ORDER-10053-20251222|78=1|79=CLST|80=6594|153=13.5173|10=210|8=FIX.4.2|9=203|35=J|34=6|49=CLIENT1|52=20251222-19:48:00.906|56=BROKER|6=0|53=0|54=5|55=FFAI|70=10054-20251222|71=0|75=20251222|73=1|11=ORDER-10054-20251222|78=2|79=FMR|80=30000|153=1.1266|79=JONE|80=136223|153=1.1266|10=247|8=FIX.4.2|9=174|35=J|34=7|49=CLIENT1|52=20251222-19:48:00.939|56=BROKER|6=0|53=0|54=5|55=FTCI|70=10055-20251222|71=0|75=20251222|73=1|11=ORDER-10055-20251222|78=1|79=FMR|80=11783|153=7.3796|10=129|8=FIX.4.2|9=174|35=J|34=8|49=CLIENT1|52=20251222-19:48:00.950|56=BROKER|6=0|53=0|54=1|55=HROW|70=10056-20251222|71=0|75=20251222|73=1|11=ORDER-10056-20251222|78=1|79=FMR|80=9394|153=38.7476|10=155|8=FIX.4.2|9=174|35=J|34=9|49=CLIENT1|52=20251222-19:48:00.960|56=BROKER|6=0|53=0|54=5|55=INMB|70=10057-20251222|71=0|75=20251222|73=1|11=ORDER-10057-20251222|78=1|79=FMR|80=63868|153=1.5223|10=121|8=FIX.4.2|9=199|35=J|34=10|49=CLIENT1|52=20251222-19:48:00.971|56=BROKER|6=0|53=0|54=1|55=ISPR|70=10058-20251222|71=0|75=20251222|73=1|11=ORDER-10058-20251222|78=2|79=CLST|80=3502|153=1.6445|79=FMR|80=62|153=1.6445|10=126|8=FIX.4.2|9=226|35=J|34=11|49=CLIENT1|52=20251222-19:48:00.985|56=BROKER|6=0|53=0|54=1|55=MOB|70=10059-20251222|71=0|75=20251222|73=1|11=ORDER-10059-20251222|78=3|79=CLST|80=3456|153=6.4466|79=FMR|80=5521|153=6.4466|79=JONE|80=476|153=6.4466|10=199|8=FIX.4.2|9=203|35=J|34=12|49=CLIENT1|52=20251222-19:48:00.998|56=BROKER|6=0|53=0|54=5|55=MOVE|70=10060-20251222|71=0|75=20251222|73=1|11=ORDER-10060-20251222|78=2|79=CLST|80=1014|153=11.2646|79=FMR|80=7686|153=11.2646|10=057|8=FIX.4.2|9=175|35=J|34=13|49=CLIENT1|52=20251222-19:48:01.009|56=BROKER|6=0|53=0|54=5|55=PERI|70=10061-20251222|71=0|75=20251222|73=1|11=ORDER-10061-20251222|78=1|79=FMR|80=20585|153=9.5169|10=166|8=FIX.4.2|9=174|35=J|34=14|49=CLIENT1|52=20251222-19:48:01.030|56=BROKER|6=0|53=0|54=1|55=RYDE|70=10062-20251222|71=0|75=20251222|73=1|11=ORDER-10062-20251222|78=1|79=FMR|80=2822|153=0.5019|10=093|8=FIX.4.2|9=175|35=J|34=15|49=CLIENT1|52=20251222-19:48:01.036|56=BROKER|6=0|53=0|54=5|55=SONN|70=10063-20251222|71=0|75=20251222|73=1|11=ORDER-10063-20251222|78=1|79=FMR|80=66000|153=4.0606|10=164|8=FIX.4.2|9=203|35=J|34=16|49=CLIENT1|52=20251222-19:48:01.049|56=BROKER|6=0|53=0|54=1|55=TLIH|70=10064-20251222|71=0|75=20251222|73=1|11=ORDER-10064-20251222|78=2|79=CLST|80=4469|153=0.4238|79=JONE|80=25474|153=0.4238|10=076|8=FIX.4.2|9=174|35=J|34=17|49=CLIENT1|52=20251222-19:48:01.072|56=BROKER|6=0|53=0|54=5|55=VFS|70=10065-20251222|71=0|75=20251222|73=1|11=ORDER-10065-20251222|78=1|79=FMR|80=23757|153=3.4983|10=113|8=FIX.4.2|9=174|35=J|34=18|49=CLIENT1|52=20251222-19:48:01.078|56=BROKER|6=0|53=0|54=1|55=VSTA|70=10066-20251222|71=0|75=20251222|73=1|11=ORDER-10066-20251222|78=1|79=FMR|80=1113|153=4.9653|10=131|