8=FIX.4.2|9=163|35=J|34=1|49=RAJA|52=20251226-19:26:35.800|56=RJSYNUAT|6=0|22=1|48=775711104|53=0|54=2|55=ROL|70=10075-20251226|71=0|75=20251226|73=1|11=ORDER-10075-20251226|78=4|10=048|8=FIX.4.2|9=579|35=J|34=2|49=RAJA|52=20251226-19:28:28.463|56=RJSYNUAT|6=0|53=0|54=1|55=FIS|70=10078-20251226|71=0|75=20251226|73=1|11=ORDER-10078-20251226|78=16|79=GS|80=9797|153=61.3704|79=MSCO|80=12319|153=61.3704|79=SSB|80=1810|153=61.3704|79=UBS|80=1074|153=61.3704|79=GS|80=9805|153=60.5043|79=MSCO|80=12315|153=60.5043|79=SSB|80=1806|153=60.5043|79=UBS|80=1074|153=60.5043|79=GS|80=9784|153=60.6969|79=MSCO|80=12326|153=60.6969|79=SSB|80=1814|153=60.6969|79=UBS|80=1076|153=60.6969|79=GS|80=4717|153=60.9447|79=MSCO|80=5943|153=60.9447|79=SSB|80=873|153=60.9447|79=UBS|80=519|153=60.9447|10=018|8=FIX.4.2|9=200|35=J|34=3|49=RAJA|52=20251226-19:28:28.489|56=RJSYNUAT|6=0|53=0|54=1|55=TCBK|70=10079-20251226|71=0|75=20251226|73=1|11=ORDER-10079-20251226|78=2|79=MSCO|80=1200|153=44.4996|79=GS|80=1200|153=44.4996|10=181|