8=FIX.4.2|9=285|35=J|34=1|49=RAYMONDJAMES|52=20260114-17:12:17.048|56=RJSYNUAT|6=28|22=1|48=671768109|53=200|54=1|55=BKOR.US|70=10234_20251117|71=0|75=20251117|73=1|11=0C5028_20251117|78=4|79=MORGANSTANLEY|80=55|153=28|79=JEFFERIES|80=45|153=28|79=MORGANSTANLEY|80=55|153=28|79=JEFFERIES|80=45|153=28|10=058|8=FIX.4.2|9=285|35=J|34=2|49=RAYMONDJAMES|52=20260114-17:32:11.290|56=RJSYNUAT|6=28|22=1|48=671768109|53=200|54=1|55=BKOR.US|70=10235_20251117|71=0|75=20251117|73=1|11=0C5029_20251117|78=4|79=MORGANSTANLEY|80=55|153=28|79=JEFFERIES|80=45|153=28|79=MORGANSTANLEY|80=55|153=28|79=JEFFERIES|80=45|153=28|10=056|